S01E00006D66735F6E616E64666C6173685F4B3630463132304D2E737265637C
S1130000F0FE0020510400009352020093520200BB
S11300109352020093520200935202000000000027
S11300200000000000000000000000004F5102002A
S11300309352020000000000C551020093520200D6
S11300409352020093520200935202009352020010
S11300509352020093520200935202009352020000
S113006093520200935202009352020093520200F0
S113007093520200935202009352020093520200E0
S1130400FFFFFFFFFFFFFFFFFFFFFFFFFEFFFFFFF9
S107041000000000E4
S11304204DF8881CF1EE101A02B42DED200A5DF887
S1130430041C70474DF8041CBDEC200A02BCE1EE1C
S1130440101A5DF8881C70470000000000000000CE
S113045013481449144A4FF0080333B140F8042BED
S113046041F8042BA3F10103F7E7EFF3088080F3CD
S11304700988EFF3148040F0020080F31488BFF37E
S11304806F8FDFF82800016841F4700101600848AB
S11304904FF00001016000F00DB880F30888704748
S11304A080E100E080E200E0FFFFFFFF88ED00E074
S11304B034EF00E0C046C04600F002F800F010F847
S11304C04EF68851CEF20001086840F470000860CE
S11304D04FF00070E1EE100A7047010002207047EF
S11304E000F009F8002801D000F016F8002000F010
S11304F027F800F02DF880B500F0C2F8012002BD05
S113050010B50400200000F077FB10BD10B5040006
S1130510200000F0B6FA10BD10B50749794418312F
S1130520064C7C44163404E0081D0A6851188847B8
S11305300146A142F8D110BDB04E0200F44E0200B3
S113054080B5024800F0FAFB002002BDE4A20200DC
S113055000F07CBD50484CF22051C1814DF6281169
S1130560C18101884FF6FE7211400180704710B4BA
S11305704A494B4A11F582531B6853F0010311F5A4
S11305808254236041F204035B5853F4407341F2F4
S113059004046350434B18004FF4A06383624FF488
S11305A0A063C3624FF4A06303644FF4A063436485
S11305B04FF4A06383644FF4A063C3644FF4A06357
S11305C003654FF4A06343654FF4A06383654FF460
S11305D0A063C365344B18004FF4A06303604FF469
S11305E0A06343604FF4A06383604FF4A063C360CF
S11305F04FF4A06303614FF4A06343614FF4A0631D
S113060083614FF4A063C3614FF4A06303624FF4AA
S1130610A06343624FF4A06383624FF4A063C36298
S11306204FF4A06303634FF4A06343634FF4A063E8
S113063083634FF4A063C3631C4B18004FF4A0639F
S113064003604FF4A06343604FF4A06383604FF4EE
S1130650A063C3604FF4A06303614FF4A0634361DC
S11306604FF4A06383615FF08053136610BC70473E
S11306700B4908604FF416628A600D4A4A6070475D
S113068080B501F0EDF901F060FCFFF770FF094857
S1130690FFF7EEFF01BD000000200540007004409C
S11306A000C0004000A0044000B0044000C004406A
S11306B001000700000000602DE9F74F04001D0051
S11306C05FF00008DDF808B0DBF80800DFF8641616
S11306D0884204D0382001F048FF002078E00C3430
S11306E0102C01D21020040014F10F00040924017D
S11306F002F045F9DBF814000600002E62D0CBF8B6
S1130700186002F04DF902F03AF9DBF8180006001F
S1130710002E57D0DBF81400864200D1B046306872
S11307208146A1454BD3B9EB04008246BAF1100FC0
S11307300AD3A0190700C7F800A0C7F804B0B0682E
S1130740B860B760346002E04C46B0680700DBF87C
S11307501400864202D1CBF8147001E0C8F8087086
S1130760DBF81400CBF81800DBF81400CBF81C00FD
S1130770DBF81400CBF82000DBF80C00CBF82400E5
S1130780DBF80C00CBF828000198C0683081002009
S11307907081C6F804B0DBF82C00B04201D2CBF86B
S11307A02C6002F0FDF8002D06D0B4F10C020021FB
S11307B016F10C0002F0E6F916F10C0008E0B04660
S11307C0B6689AE702F0ECF8042001F0CEFE0020AF
S11307D0BDE8FE8F2DE9FC4F83B083460C005FF02B
S11307E00008DDF810A0DAF80800DFF848158842A0
S11307F004D0382001F0B9FE00208BE01BF10C0B73
S1130800BBF1100F01D2102083461BF10F005FEAE9
S1130810101B5FEA0B1B02F0B2F8DAF814000500B3
S1130820002D71D0CAF8185002F0BAF802F0A7F8F7
S1130830DAF818000500002D66D0DAF814008542B5
S113084000D1A84628688146B4F10C0015F11001C6
S1130850884256D319EB05001BEB04010C3988427E
S11308604FD3B4F10C000600701B0190B9EB0B00E0
S11308700199401A009001982860009810280AD322
S11308801BEB0600070000983860C7F804A0A868AE
S1130890B860AF6004E0009810EB0B0BA868070089
S11308A0C6F800B0B760DAF81400CAF81800DAF82D
S11308B01400CAF81C00DAF81400CAF82000DAF8A8
S11308C00C00CAF82400DAF80C00CAF828000398CF
S11308D0C068308100207081C6F804A0DAF82C00CA
S11308E0A84201D2CAF82C5002F05AF80E980028F7
S11308F005D0BBF10C020021200002F043F92000D6
S113090008E0A846AD688BE702F04AF8042001F03D
S11309102CFE002005B0BDE8F08F70B50400DFF8B0
S11309201804006805000023D5F8F022E9692000C6
S1130930FFF7C2FE0600300070BDF8B504000D00DC
S1130940DFF8F4030068060000200090D6F8F032C7
S1130950F26929002000FFF73DFF07003800F2BDCF
S1130960DFF8D41309680800D0F8F0027047F8B52E
S113097004000D00DFF8C003006806000023220015
S1130980F1692800FFF798FE07003800F2BD70B542
S11309900400DFF8A403006805000123D5F8F02261
S11309A0E9692000FFF788FE0600300070BDF8B545
S11309B004000D00DFF88003006806000123220014
S11309C0F1692800FFF778FE07003800F2BD2DE931
S11309D0F84304000D001600DFF85C03006807000C
S11309E0701981465FEA19100001206115F10F00AA
S11309F0000900018046C4F80C80C4F82C802069EA
S1130A00B0EB0800C8F800000020C8F80800C8F8D7
S1130A100440C4F81480C4F81880C4F81C80C4F8D6
S1130A20208001F0ACFFD7F8E402002804D10021B3
S1130A3017F5397002F0B1F8210017F5397002F09A
S1130A40B2F801F0ADFFDFF8EC02A0602000BDE8D1
S1130A50F28370B504000D0014F10F0000090001C9
S1130A60060030220021300002F08CF816F130002C
S1130A700400B5F1300221003000FFF7A8FF300078
S1130A8070BD2DE9F8430400DFF8AC0200680500EE
S1130A90002C04D1012001F068FD012099E0B4F19B
S1130AA00C00060070688046D8F80800DFF884124D
S1130AB0884204D0382001F058FD382089E030897C
S1130AC0E969C96889B2884209D030894FF6FF7153
S1130AD0884204D0032001F048FD032079E001F0AE
S1130AE04EFFD8F814000700D8F81400002803D0EB
S1130AF0D8F81400864218D2D8F8140007003068D9
S1130B008019B8420BD13068396808183060B86869
S1130B10B0600C220021380002F034F800E0B76025
S1130B20C8F814600020814613E0B868864202D3F6
S1130B30B868002802D1012081460AE0BF68C8F8DD
S1130B401C7001F02DFF01F01AFFD8F81C000700FB
S1130B50CAE7B9F1000F25D030688019B968884216
S1130B600DD13068B968096808183060B8688068C1
S1130B70B0600C220021B86802F004F801E0B86803
S1130B80B0603868C019B0420BD1386831680818B1
S1130B903860B068B8600C220021300001F0F2FF28
S1130BA000E0BE60D8F81400C8F81800D8F81400A3
S1130BB0C8F81C00D8F81400C8F82000D8F80C00B5
S1130BC0C8F82400D8F80C00C8F8280001F0E8FEA2
S1130BD00020BDE8F283F8B504000D00DFF85801E9
S1130BE0006806000023220016F150012800FFF7D8
S1130BF063FD07003800F2BD70B50400DFF838016A
S1130C00006805000023D5F8F02215F150012000FA
S1130C10FFF752FD0600300070BD70B5464800680D
S1130C20040014F5487006003500C4F8F05230365C
S1130C30D4F89801821B31002800FFF7C8FE002079
S1130C4070BD2DE9F84304000D00A8463A48006839
S1130C500600B8F1000F05D1D6F8E4020700F868E1
S1130C60804609E0B5F10C008046D8F8040007007E
S1130C70D8F8000010EB080801F081FE786981467D
S1130C803869804519D2B8F80800E16889B2884209
S1130C900ED1B9F1000F04D0C14502D2D9F80890A1
S1130CA0F7E7C14504D001F07BFE18F10C000EE01B
S1130CB0D8F8000010EB0808E2E73F68F8688046BF
S1130CC016F539708742D9D101F06AFE0020BDE8DB
S1130CD0F2830200002A05D0B2F10C00030059810E
S1130CE0012000E000207047B0F10C031A00CB682B
S1130CF013817047F8B504000D000F480068060022
S1130D000123220016F150012800FFF7D5FC07004B
S1130D103800F2BD70B504000748006805000123DF
S1130D20D5F8F02215F150012000FFF7C5FC0600AC
S1130D30300070BD70656D6C5400FF1F2DE9F04FDD
S1130D4083B0040060680F30000900010500DFF87B
S1130D50E0020560DFF8DC022860DFF8DC022860CE
S1130D604FF448720021280001F00CFF15F5C870FB
S1130D702100302201F0F6FFC5F89451D5F898010E
S1130D8000090001C5F8980100F0E4F8FFF745FFF9
S1130D908046B8F1000F02D0404600F0AAF8D5F81A
S1130DA0B801002806D0D5F8B8018146D5F89C01D1
S1130DB0804618E0D5F89C01D82802D2D820C5F87E
S1130DC09C01D5F89C01103080464046FFF714FF83
S1130DD08146B9F1000F02D1042000F08AF8022103
S1130DE04846FFF776FF4146484601F0F7FC18EB0A
S1130DF00900401E00090001E863D82080464046EF
S1130E00FFF7FAFE8246BAF1000F02D1042000F087
S1130E1070F801215046FFF75CFF18EB0A00401EF2
S1130E2000090001834615F150000700BBF164007E
S1130E307861C7F810B01AF10F0000090001B86119
S1130E407869DFF8F811086001F0EAFF8046B8F12C
S1130E50000F02D0404600F04CF8012115F5E07077
S1130E6002F04CF8012115F59A7002F047F802F0EF
S1130E708DF98046B8F1000F02D0404600F039F8F1
S1130E80002001900020009001230022E869C1683D
S1130E9015F5307001F0DFFB0700002F02D10420AC
S1130EA000F027F8380001F0A3FCD5F8A0010600F3
S1130EB03068002818D0307DC00713D50020019079
S1130EC0002000900023B269E869C168300001F095
S1130ED0C2FB0700002F02D1042000F00AF83800FA
S1130EE001F086FC2036E3E724F01AF90020BDE87F
S1130EF0FE8F040001F043FD4D4800680500FEE745
S1130F004B4A1268110008817047F8B504000D00BF
S1130F10474800680600082C04D30C2001F025FB88
S1130F20002016E001F02BFD16EB8400D0F89002AF
S1130F300700002F04D116EB8400C0F8905205E09E
S1130F40002D03D116EB8400C0F8905201F028FD67
S1130F503800F2BD2DE9F04135480068040043F63D
S1130F60F93020824FF4C57060820820206001208F
S1130F7060600220E0810F2060810F20A081D4F8FE
S1130F80A001002802D10120FFF7B3FF0120C4F81B
S1130F90040101F015FF14F150000600E661E08A37
S1130FA06083E08AB084D4F89001000440F47F4068
S1130FB050F0FF00F0600320B060002114F594703D
S1130FC001F0EBFD002114F5B47001F0E6FD002002
S1130FD00700D4F8A00105000020804628680028F6
S1130FE00CD04FF6FF70804508D2E868874201D2E2
S1130FF0E868070018F101082035EFE7C4F800712C
S113100014F5307005000E482860E020A8600D48F3
S113101028610D486860781CE860002114F584702C
S113102001F0BBFD0120C4F81401BDE8F08100000B
S11310305400FF1F387B02003C7B02006407FF1F43
S1131040030000801C7B0200551D02000746384641
S113105002F0A0F9FBE7010000207047704701008F
S1131060DFF8FC080078012817D1C9B2002908D19B
S1131070DFF8F0081E220270DFF8EC080A22027082
S113108007E0DFF8E0081F220270DFF8DC088022A6
S11310900270C9B2002907D101E0012015E0DFF890
S11310A0CC088222027003E0DFF8C008C22202707A
S11310B0DFF8B80800780006FAD4DFF8B008007842
S11310C0800601D4002000E01B207047C0B2002835
S11310D034D1DFF8A41880220A70DFF8A0182C227B
S11310E00A70DFF89C1880220A70DFF8981828220A
S11310F00A70DFF8941821220A70DFF8901804228D
S11311000A70DFF88818097851F04001DFF87C286C
S11311101170DFF87C1808220A70DFF878180422AE
S11311200A70DFF8741848220A70DFF8701809781A
S1131130C9B211F00C010C29F7D1FFE77047C0B216
S1131140002802D001283AD06BE0DFF82C18802266
S11311500A70DFF828182C220A70DFF8241880227D
S11311600A70DFF82018A8220A70DFF81C18212260
S11311700A70DFF8201804220A70DFF81C184822CD
S11311800A70DFF8081804220A70DFF800180978DA
S113119051F04001DFF8F4271170DFF8F41708224A
S11311A00A70DFF8F8170978C9B211F00C010829A0
S11311B0F7D1DFF8E81709784906FAD531E0DFF806
S11311C0B81700220A70DFF8B4172C220A70DFF86F
S11311D0B01700220A70DFF8AC17AA220A70DFF8F1
S11311E0A81721220A70DFF8AC1704220A70DFF86E
S11311F0A81740220A70DFF8941704220A70DFF857
S1131200901700220A70DFF894170978C9B211F018
S11312100C010829F7D1DFF8841709784906FAD5B3
S1131220FFE77047C0B2002802D001284AD08BE003
S1131230DFF8441780220A70DFF8441780220A700E
S1131240DFF85C17097811F0FE01DFF854271170FC
S1131250DFF828172C220A70DFF82C1721220A70D5
S1131260DFF82017A8220A70DFF83817097811F080
S11312701F01DFF830271170DFF8181704220A70F5
S1131280DFF8141708220A70DFF8001704220A7026
S1131290DFF8F816097851F04001DFF8F0261170F4
S11312A0DFF8EC1608220A70DFF8F0160978C90690
S11312B0FAD4DFF8E8160978C9B211F00C0108294C
S11312C0F7D141E0DFF8B01600220A70DFF8B0165B
S11312D000220A70DFF8C816097811F0FE01DFF861
S11312E0C0261170DFF894162C220A70DFF89816C5
S11312F021220A70DFF88C16AA220A70DFF8A416DD
S1131300097811F01F01DFF89C261170DFF88416AC
S113131000220A70DFF8801600220A70DFF86C16CB
S113132000220A70DFF8681600220A70DFF86C16D3
S11313300978C906FAD4DFF864160978C9B211F03D
S11313400C010829F7D1FFE77047C0B201281ED16C
S1131350DFF8301646220A70DFF82C1623220A70B2
S1131360DFF8141600220A70DFF810162C220A7017
S1131370DFF80C1600220A70DFF820160978C90677
S1131380FAD5DFF818160978C907FAD5FFE77047C8
S1131390C0B2002802D001284AD08BE0DFF8E4155F
S11313A044220A70DFF8E01521220A70DFF8F415F0
S11313B0097811F01F01DFF8EC251170DFF8B8157A
S11313C080220A70DFF8B4152C220A70DFF8B015F9
S11313D080220A70DFF8C815097811F0FE01DFF8E1
S11313E0C0251170DFF8AC1504220A70DFF8A815C7
S11313F008220A70DFF8941504220A70DFF88C15AD
S1131400097851F04001DFF884251170DFF8801568
S113141008220A70DFF884150978C906FAD5DFF8BE
S11314207C150978C9B211F00C010429F7D141E007
S1131430DFF8501546220A70DFF84C1521220A7095
S1131440DFF86015097811F01F01DFF858251170D5
S1131450DFF8241500220A70DFF820152C220A7008
S1131460DFF81C1500220A70DFF83415097811F032
S1131470FE01DFF82C251170DFF8181500220A7020
S1131480DFF8141500220A70DFF8001500220A7034
S1131490DFF8FC1400220A70DFF800150978C90689
S11314A0FAD5DFF8F8140978C9B211F00C0104294F
S11314B0F7D1FFE7704770B504000025E4B2002CB3
S11314C002D0012C03D005E00420050002E0012035
S11314D00500FFE700F031F80600EDB2F6B2052092
S11314E0DFF8C41400FB06102E5CF6B2002E06D002
S11314F0022E0ED008D3042E15D00FD318E02000EE
S1131500C0B2FFF745FF13E02000C0B2FFF71DFF94
S11315100EE02000C0B2FFF785FE09E02000C0B253
S1131520FFF70DFE04E02000C0B2FFF7CFFDFFE798
S1131530EDB2F6B2B542D0D170BDDFF84804007800
S1131540C0B210F0C000002804D0402804D0802885
S11315500BD013E0042012E0DFF82C04007880079D
S113156001D400200BE0012009E0DFF82C0400780E
S1131570400601D4022002E0032000E0002070476E
S113158010B50400E4B2032C01D302209EE0E4B2BF
S1131590002C03D0022C6BD035D38FE0DFF8C003CE
S11315A00078022817D1DFF8F003007810F0DF008C
S11315B0DFF8E4130870DFF8F403DFF8F4130160D4
S11315C00020FFF778FFDFF8D003007850F0200008
S11315D0DFF8C4130870DFF8D403DFF8D813016010
S11315E0DFF8D403006830F4003050F48030DFF8C2
S11315F0C8130860DFF8C403006850F40020DFF863
S1131600BC1308605AE0DFF858030078022817D1A9
S1131610DFF88403007810F0DF00DFF87C13087033
S1131620DFF88803DFF8881301600020FFF743FF29
S1131630DFF86403007850F02000DFF85C130870D2
S1131640DFF86803DFF878130160DFF86C030068E3
S113165030F4003050F48030DFF85C130860DFF8B9
S11316605C03006850F40020DFF85013086025E0A4
S1131670DFF82403007810F0DF00DFF81C13087093
S1131680DFF82803DFF8281301600120FFF713FFB8
S1131690DFF818035FF440310160DFF81C030068D1
S11316A050F44030DFF810130860DFF810030068CE
S11316B030F40020DFF804130860FFE72000C0B214
S11316C0FFF7CCFCDFF898020470002010BDDFF8AF
S11316D0900200787047000080B5FEF73BFFB948E0
S11316E0006850F00050B7490860B7480068C0056A
S11316F011D4B548006830F47050B3490860B2485A
S1131700006850F48070B0490860AF48006830F455
S11317100070AD490860AD48006850F42850AB49EA
S1131720086040F2FF300078C0B2FF2810D0A8480B
S113173040F2FF31097801709A48007810F0E00017
S113174040F2FE31097811F01F01084395490870F1
S11317509648984901609F48006850F060509D4940
S113176008609548006830F4003050F480309249A5
S113177008609248006850F4002090490860964838
S1131780006850F020009449086094480068944927
S1131790084092490860934800689149084091497B
S11317A00860914800688E4908408F490860724873
S11317B0802101707248802101707948007810F00E
S11317C0FE00774908706D482C2101706E48212174
S11317D001706C48A82101707248007810F01F0055
S11317E0704908706B48042101706B48082101702E
S11317F06648042101706548007850F04000634950
S1131800087063480821017064480078C006FBD45E
S113181062480078C0B210F00C000828F8D15E4885
S1131820482101705D480078C0B210F00C0008280F
S1131830F8D15A4800784006FBD552482821017057
S113184056480078C0B210F00C000C28F8D1524869
S1131850007850F020005049087001BD56480068D7
S113186030F40060544908606048006830F08070CB
S113187050F4E0605D4908605D48007810F0E000D5
S11318805B4908705B48007810F0F800594908700B
S11318905948007810F0DC0050F0500056490870A8
S11318A05648007810F0DC0050F0400053490870AE
S11318B05348007810F0E60051490870514800215F
S11318C001705148002101705048002101705048B6
S11318D0002101704F48007810F0410050F00100E1
S11318E04C490870224880210170224880210170EF
S11318F0494800210170494828210170704770B59A
S1131900040000252000C0B2FFF73AFE0500ADB286
S1131910002D02D0280080B20AE0C82200214048ED
S113192001F0A3FD0600002E01D01B2000E00020E2
S113193070BD80B5FFF7CBFE02BD0200D2B2032A10
S11319400BD2C9B21E2908D2C9B2D2B22820354B53
S113195000FB023050F8210000E000207047000036
S1131960580AFF1F0A4006400B4006400840064044
S113197008C0074009C00740005006400F40064019
S113198000500E4000400640014006401040064012
S1131990114006400440064005400640064006400B
S11319A00C40064003400640CC84020044800440BE
S11319B000007713000025010480044000700440F7
S11319C0000099993C80044010D0034038800440C2
S11319D00240064068800440288004404890044047
S11319E0FFF8FFFE60D0044064D00440109004402F
S11319F005F0074004F0074000D0074001D007403D
S1131A0002D0074000C0074001C0074002C00740A1
S1131A1003C0074004C007400AC0074000E0074075
S1131A20B802FF1FE884020010B500240020FFF76D
S1131A3016FB0400A4B2002C02D0200080B20AE0FD
S1131A400120FFF70CFB0400A4B2002C02D02000FC
S1131A5080B200E0002010BD80B5FFF7FFFE01BD9D
S1131A6080B5FFF739FE01BD30B40200DFF8183647
S1131A70D2B2002A0AD0022A54D02DD3042A00F06C
S1131A80978075D3052A00F0B980DDE0DFF8FC0506
S1131A900400C80705D54FF4107060604FF410704F
S1131AA0A060880703D5002060600020A06048077C
S1131AB007D541F23400C05850F4806041F2340537
S1131AC0E850080707D541F23400C05830F480606C
S1131AD041F23405E850BAE0DFF8B4050400C80761
S1131AE005D54FF45070E0604FF4507020618807C2
S1131AF003D50020E06000202061480707D541F2AB
S1131B003400C05850F4006041F23405E85008072E
S1131B1007D541F23400C05830F4006041F2340576
S1131B20E85094E0DFF86C050400C80705D54FF4CD
S1131B305070A0604FF45070E060880703D5002017
S1131B40A0600020E060480707D541F23400C05887
S1131B5050F4805041F23405E850080707D541F2AB
S1131B603400C05830F4805041F23405E8506EE03F
S1131B70DFF81C050400C80705D54FF45070206435
S1131B804FF450706064480707D541F23400C058E0
S1131B9050F4005041F23405E850080707D541F2EB
S1131BA03400C05830F4005041F23405E8504EE09F
S1131BB0DFF8DC040400C80705D54FF45070A063B7
S1131BC04FF45070E063880703D50020A063002021
S1131BD0E063480707D541F22800C05850F48060FC
S1131BE041F22805E850080707D541F22800C058FB
S1131BF030F4806041F22805E85028E0DFF89804CA
S1131C000400C80705D54FF4507020624FF450709B
S1131C106062880703D500202062002060624807C4
S1131C2007D541F22800C05850F4006041F228055D
S1131C30E850080707D541F22800C05830F4006086
S1131C4041F22805E85002E05FF0FF3000E0002098
S1131C5030BC70470100DFF83024002905D0022988
S1131C6015D00BD303291BD023E041F23C0080584C
S1131C7050F0006041F23C0398501DE041F2300006
S1131C80805850F0006041F23003985014E041F263
S1131C903C00805850F0805041F23C0398500BE0D7
S1131CA041F23000805850F0805041F23003985097
S1131CB002E05FF0FF3000E00020704770B40100E4
S1131CC011F01F020023080505D5D2B2042A02D35D
S1131CD05FF0FF30C5E089B211F4704080B2B0F516
S1131CE0805F09D0B0F5005F12D0B0F5405F32D00C
S1131CF0B0F5804F52D074E0D2B21A2A05D2D2B2D3
S1131D00DFF89803105C040001E0012004006BE09C
S1131D1089B211F4C060B0F5007F10D1D2B2042AA8
S1131D2002D3D2B2082A02D30020040012E0D2B2B5
S1131D30DFF86C03101810F8040C04000AE0D2B2A7
S1131D401A2A05D2D2B2DFF85C03105C040001E069
S1131D500120040048E089B211F4C060B0F5007FAE
S1131D6010D1D2B2042A02D3D2B2082A02D300205C
S1131D70040012E0D2B2DFF83003101810F8040C9B
S1131D8004000AE0D2B21A2A05D2D2B2DFF81C0348
S1131D90105C040001E00120040025E089B211F484
S1131DA0C060B0F5007F10D1D2B2042A02D3D2B2FF
S1131DB0082A02D30020040012E0D2B2DFF8F002B5
S1131DC0101810F8040C04000AE0D2B21A2A05D242
S1131DD0D2B2DFF8E002105C040001E0012004004C
S1131DE002E05FF0FF303CE0E4B2002C02D15FF08F
S1131DF0FF3036E0E4B2012C01D1002031E0E4B23E
S1131E006009012809D01FD303280ED009D305285F
S1131E1013D00ED3062814D016E0DFF870020500A4
S1131E2012E0DFF8940205000EE0DFF8640205001A
S1131E300AE0DFF86002050006E0DFF85C02050056
S1131E4002E0DFF878020500E4B214F01F0055F850
S1131E50200030F4E060E4B214F01F0645F82600D8
S1131E60002070BC7047DFF85802006850F0005042
S1131E70DFF84C1208600020704730B40200DFF82D
S1131E800832D2B2002A29D1DFF80C02040089B248
S1131E9040F243400840206089B240F24340084089
S1131EA0606089B211F48860A06089B240F2434056
S1131EB00840E06089B240F243400840206189B2A2
S1131EC040F243400840606141F23000C05850F491
S1131ED0003041F23005E850002001E05FF0FF30AF
S1131EE030BC704710B40100DFF89C31002902D0E7
S1131EF0012912D023E0DFF89C0102004FF408709E
S1131F0010624FF40870506241F23400C05850F02F
S1131F10400041F23404E05014E0DFF874010200A0
S1131F204FF4087090624FF40870D06241F23400AC
S1131F30C05850F0800041F23404E05002E05FF0F9
S1131F40FF3000E0002010BC70475F48006850F488
S1131F50FC405D4908600020704701000800032828
S1131F6002D0042806D00BE0494802004FF4407028
S1131F70906405E0484802004FF44070D066FFE7E3
S1131F800020704740494C4802004FF4A860106597
S1131F904FF4A86050654FF4A86090654FF4A860B2
S1131FA0D0653B4802004FF4A86010604FF4A8606D
S1131FB050604FF4A86090604FF4A86010614FF433
S1131FC0A86050614FF4A86090614FF4A860D0619C
S1131FD04FF4A86010624FF4A86050624FF4A860F8
S1131FE090624FF4A860D0624FF4C86010644FF45C
S1131FF0C8605064274802004FF4A86010614FF491
S1132000A86050614FF4C86010624FF4C860506219
S11320104FF4C86090622B482A4B1B68036041F25E
S11320203000405850F4807041F230035850002082
S113203070470100002924D12148006850F4004071
S11320401F4A10602148006850F480601F4A1060E5
S11320501F48006850F480601D4A10601D480068E5
S113206050F4C8601B4A10601B48006850F4C860F4
S1132070194A10601948006850F48060174A1060CB
S1132080FFE7002070470000007004400090044007
S113209000B0044000C0044000D0044008840200A2
S11320A0408402002484020060840200448402000C
S11320B0808402006484020000A0044000E0044024
S11320C03C800440048004403880044018D004401C
S11320D030D0044034900440309004401CD004407C
S11320E02DE9F04782B004000D0016001F005FF0D8
S11320F0000ADFF8B00400688046002D04D51520DE
S113210000F033FA002031E0A4B2002C03D1D8F857
S11321109001040012E0A4B2B4F5807F04D313202C
S113212000F023FA002021E0A4B2D8F89001844200
S113213004D0132000F019FA002017E000970023C0
S113214000223100280000F02FFA8146B9F1000F77
S11321500BD0D9F80C00824600F011FC484600F080
S113216047FB00F01DFC22F0DFFF5046BDE8F68778
S113217070B504000D001600002332002900200071
S113218080B2FFF7ADFF70BD2DE9F84304000D00E8
S11321901600DFF8100400680700002D04D5152090
S11321A000F0E3F900202FE0A4B2002C03D1D7F80B
S11321B09001040012E0A4B2B4F5807F04D313208C
S11321C000F0D3F900201FE0A4B2D7F890018442B4
S11321D004D0132000F0C9F9002015E0002000907D
S11321E0002300223100280000F0DEF98046B8F117
S11321F0000F06D00320C8F80800D8F80C00814668
S113220001E0002081464846BDE8F2832DE9F34F02
S113221083B0DFF8900300688246039800280CD04E
S11322200398000CADF80200BDF80200DAF8901132
S113223089B2884201D0122031E1039800F06AF992
S11322408346BBF1000F03D01AF15000834501D13E
S1132250122024E11AF59A7000F001FF00F08FFBC0
S1132260DBF80800092807D100F09AFB1AF59A70E8
S113227000F0B7FE002012E1DBF8080002280CD1C0
S1132280DAF81C0083453DD0DBF804100800DBF8C5
S113229000100C000460606034E0DBF80800C00546
S11322A01DD5DBF80800C0052CD5DBF804100800A8
S11322B0DBF800100D0005606860BAF87001401E7C
S11322C0AAF87001DBF8080030F48070CBF808003D
S11322D0DBF8080050F00300CBF8080012E0DBF84C
S11322E0080080050ED5DBF804100800DBF80010A8
S11322F00E0006607060DBF838000089401EDBF8D1
S113230038100881DBF8080040050ED5DBF84010D2
S11323100800DBF83C100F0007607860DBF8380039
S11323200089401EDBF8381008810920CBF808002A
S1132330DAF84800584502D10020CAF8480000F0F5
S11323402FFB00200400102C0DD21AEB8400D0F8CF
S11323501C02002805D058461AEB8401D1F81C123F
S11323608847641CEFE7DBF80C00ADF80000DAF8EE
S11323701C0001909BF8280080061ED400215846BA
S1132380FEF75FFC0400002C17D021005846FEF72E
S113239058FC05000198584504D01AF1500120005A
S11323A0FEF7A2FC5C4506D0DBF88C00844202D028
S11323B02000FEF766FB2C00E5E75FF00040CBF859
S11323C00C00BAF81001012806D10120CAF8140142
S11323D00020CAF818010EE0BDF80000DAF8141164
S11323E0884208D2BDF80000CAF81401DBF8700076
S11323F06C38CAF81801DBF870100800DBF86C10B0
S11324008846C0F80080C8F80400BAF81001401EDD
S1132410AAF810011AF59A7000F0E3FD01988345BB
S11324202AD100F0ACFADBF804100800DBF8001045
S11324308946C0F80090C9F80400584601F081F8B4
S11324409BF82800800615D4DBF88C00002809D0FE
S11324501AF15001DBF88C00FEF746FCDBF88C0027
S1132460FEF70FFB1AF150015846FEF73DFC5846A3
S1132470FEF707FB22F056FE584601F062F89BF87F
S1132480280080060AD4DBF88C00002803D0DBF88F
S11324908C00FEF7F6FA5846FEF7F3FA002005B072
S11324A0BDE8F08F10B5040000212000FFF7AEFE58
S11324B010BD70B504002600DFF8E80000680500D0
S11324C0F068000C80B2D5F89011884203D0122035
S11324D000F04BF811E000F052FAB068022805D180
S11324E000F05EFA112000F040F806E0300000F041
S11324F07FF900F055FA22F017FE70BD29490968EA
S11325000800018B002902D0406BC06801E0C0695B
S1132510C06D7047F8B50400224800680700002C1D
S113252001D1F86920E0F86D844202D117F150001E
S11325301AE000F024FAD7F808016C380500B7F85F
S1132540100106003000461E00280AD0E868A042A8
S113255003D100F025FA280006E0E86EB0F16C051E
S1132560F0E700F01DFA0020F2BD01000D4B1B68DE
S11325701A00138B002B03D0536BDB68180002E0A6
S1132580D369DB6D1800002901D0002807D1138B13
S1132590002B02D0536BD96001E0D369D965704731
S11325A0000000005400FF1F2DE9F74F04000D0048
S11325B01E009A4800680700002C17D000208246AD
S11325C0AB46D7F8A0018146D9F80000002806D010
S11325D0D9F80000A04202D019F12009F4E7D9F893
S11325E00000002808D10020814605E0A946D9F85A
S11325F01800834601208246B9F1000F04D110204F
S1132600FFF7B3FF002013E017F59A7000F027FDE1
S113261001960298009053465A46F869C1684846A4
S113262000F019F8804617F59A7000F0DAFC40467D
S1132630BDE8FE8F38B5BC4800680400E0690500B9
S1132640D5F88400002802D0D5F884008047002003
S1132650FFF728FF31BD2DE9F64F85B004001D00BA
S1132660109E6E4800680700D7F80001E1688842B0
S113267008D217F53070844204D00E20FFF775FF9E
S11326800020A8E0002E18D011988346BBF5BE7F29
S113269004D80220FFF769FF00209CE000233200E9
S11326A002A9584600F0BEF880460298BBEB000B26
S11326B0002D1BD0BBF1200B18E0A0688346BBF1B2
S11326C0D90F01D2D82083461BF10F005FEA101BFB
S11326D05FEA0B1B002D02D01BF1200000E05846DE
S11326E00023002202A900F09DF88046B8F1000FF3
S11326F004D10A20FFF739FF00206CE00320C8F85A
S11327000800D8F88C00002803D0D8F88C00824642
S113271003E0029810EB08008246002D0ED0CDF89D
S11327200CA01AF1200A03982100202200F01AFBC1
S113273003980400206850F0004020605946504639
S113274000F04CF8E0687FF00F013A6A01FB0020CA
S11327508146C8F81C90C8F82090B9F80C00A8F875
S113276024006069C8F82800002E05D0D8F8280095
S113277050F02000C8F8280006980190B9F80C0021
S1132780009023005A465146404600F0DBFE0028E4
S113279001D100201FE0C8F868402068C8F8640030
S11327A0D7F88402C8F87400D7F88802C8F878000B
S11327B0D7F88C02C8F87C000598C8F86000002E91
S11327C008D141464046FEF78FFA4146D8F88C00BE
S11327D0FEF78AFA404607B0BDE8F08F8908491C25
S11327E0491E002903D0514A0260001DF8E77047D2
S11327F010B44D4C24682100C4692200546823009D
S11328004C6A944200D24A620224846043601C6889
S113281004601860506010BC704700005400FF1F33
S1132820416970472DE9FB4F82B014005FF0A409A1
S11328303D4800680500B5F810014FF6FE71884266
S113284001D300206CE00398C0F80090002C06D05F
S1132850A3464A460021584600F094F922E048462F
S1132860FEF795F88346BBF1000F04D00298FEF7FB
S113287054F8CBF88C00BBF1000F01D158464FE05F
S1132880DBF88C00002804D15846FEF7FAF8002043
S113289046E024215846FEF71CFA2521DBF88C007B
S11328A0FEF717FAD5F814018246D5F81801060088
S11328B0D5F890011FFA8AFA5AEA0040CBF80C00C6
S11328C0002E03D115F58470009002E016F16C001F
S11328D000901BF16C02009915F5847000F0AEF9BC
S11328E0D8464646F06E6C380700B8461AF1010A1D
S11328F01FFA8AFABAF1000F01D10120824615F5B8
S11329008470874205D0F86880B21FFA8AFA50456D
S1132910E7D0C5F818611FFA8AFAC5F814A1584619
S113292005B0BDE8F08F00005400FF1F6B617473A5
S11329300200D36D1800002901D0002800D1D16510
S113294070477047F8B50500DFF82C0200680600F0
S1132950F069070000F013F8B8680B280CD00B20BE
S1132960B860BD6341213800FFF7E2FF79680800D1
S113297039680C000460606000F012F8F1BDDFF803
S1132980F81109680800C169496D002902D1C18A9A
S113299081F31188C169496D491CC2695165704749
S11329A0DFF8D41109680800C169496D002911D004
S11329B0C169496D491EC269516500290AD1018B5B
S11329C0002904D0416B896881F3118802E0418BAE
S11329D081F311887047DFF8A01109680800806A44
S11329E0704701000020704770B504006248006819
S11329F00500A86B002804D11820FFF7B6FD0020BD
S1132A0021E0E86A844202D3286BA04204D2142055
S1132A10FFF7ABFD002016E0FFF7B1FFE86A201ACC
S1132A20C008A96B51F820000600002E04D03068BD
S1132A30A04201D03669F8E7FFF7B2FF002E01D0BB
S1132A40F06800E0002070BD2DE9F84304000D009B
S1132A501600494800680700B86B002804D1182004
S1132A60FFF783FD00204FE0F86A844202D3386BFD
S1132A70A04204D21420FFF778FD002044E0FFF7C1
S1132A807EFFF86A201AC008B96B51F8200080460E
S1132A90B8F1000F06D0D8F80000A04202D0D8F850
S1132AA01080F5E7B8F1000F22D11420FEF7A4F846
S1132AB08046B8F1000F06D1FFF772FF0420FFF73C
S1132AC054FD002020E023214046FEF702F9F86A75
S1132AD0201AC008B96B51F82000C8F81000F86A31
S1132AE0201AC008B96B41F820802448814602E0CE
S1132AF0D8F804008146C8F80040C8F80450C8F863
S1132B000C60FFF74DFF4846BDE8F2832DE9F04124
S1132B1004000D00A54201D20C202BE016480068E9
S1132B2006001748C6F8F4001448B062281B401C7D
S1132B30C008401C80465FEA8800FEF7EBF80700F7
S1132B40002F01D1042015E003213800FEF7C1F85D
S1132B50B763F4623563A6F81C830320A6F81E034A
S1132B604046B0F10108002803D0002047F82800AF
S1132B70F6E70020BDE8F0815400FF1F452900005E
S1132B809352020070B504000D0016002A003100B3
S1132B90200000F03DFD200070BD00604060002278
S1132BA002814181704738B504000D00FFF7E7FE4C
S1132BB06089002807D020896189884203D3FFF700
S1132BC0EFFE00200EE06168096808002860616873
S1132BD00D606168696045602089401C2081FFF7B1
S1132BE0DFFE012032BD70B50400FFF7C8FE208966
S1132BF0002803D1FFF7D4FE00200DE02068050073
S1132C006968080029680E00066070602089401E0B
S1132C102081FFF7C5FE280070BD38B50400FFF71A
S1132C20AEFE2089002803D1FFF7BAFE002004E09D
S1132C3020680500FFF7B4FE280032BD70B504001B
S1132C400D001600002D00D12500FFF798FE6089C5
S1132C50002807D020896189884203D3FFF7A0FEAA
S1132C6000200BE02968080030602E607560466023
S1132C702089401C2081FFF793FE012070BD70B5B0
S1132C8004000D00002D01D100200AE0FFF777FEBB
S1132C9028680600FFF784FEA64201D10020060042
S1132CA0300070BD2DE9F04104000D00FFF767FE10
S1132CB02089401C8046206806002700B8F10108DE
S1132CC0B8F1000F11D0A64204D1FFF769FE2E60BF
S1132CD01D201CE07068B84204D0FFF761FE2E602E
S1132CE01D2014E037003668E8E7A64204D0FFF759
S1132CF057FE2E601D200AE06068B84204D0FFF73A
S1132D004FFE2E601D2002E0FFF74AFE0020BDE8C2
S1132D10F08170B504000D00FFF731FE696808000A
S1132D2029680E00066070602089401E2081FFF72C
S1132D3037FE70BD0089002801D1012000E0002089
S1132D40C0B2704762B38B0708D0521E11F8013B22
S1132D5000F8013B00F024808B07F6D1830740F094
S1132D60208000BF103A07D330B4B1E83810103ACD
S1132D70A0E83810F9D230BC530724BFB1E80810DA
S1132D80A0E8081044BF51F8043B40F8043BD207C4
S1132D9024BF31F8022B20F8022B44BF0B780370B8
S1132DA07047083A07D3B1E80810083A40F8043BE2
S1132DB040F804CBF7D25307E4E701000120704741
S1132DC030B4324C2468200010F5C87421004C69DA
S1132DD02200082A04D30724220007244C6105E0BA
S1132DE0002A03D10124220001244C61540114F06F
S1132DF0E004C482002423006A2B04D2244CC0259E
S1132E001D555B1CF8E7234C00252B00042B05D231
S1132E105FF0FF3544F823505B1CF7E730BC704784
S1132E20F8B51A480068040000202062D4F80001B4
S1132E30801C06003001FDF7AAFD0500002D01D11C
S1132E40042022E005212800FDF743FF3700380065
S1132E50471E002816D02D606D60EF81D4F8A401C0
S1132E60C019082807D2D4F8A401C019400110F0F1
S1132E70E000A88101E00020A881206AA860256202
S1132E801035E4E7206A60620020F2BD5400FF1FA1
S1132E9000E400E080E100E02DE9F84304000D00C7
S1132EA016001F00DFF8DC0200688046A5610021DF
S1132EB014F10800FFF771FEFFF761FD002E15D134
S1132EC0D8F82801814618F59470814509D0A145A8
S1132ED004D1FFF765FD4FF482600DE0D9F800904E
S1132EE0F1E7210018F59470FFF75DFEDFF8980212
S1132EF06061FFF755FD0020BDE8F28338B504009A
S1132F000D000023002229002000FFF7C5FF32BD79
S1132F102DE9F04704000D00DFF8680200680600A0
S1132F20FFF72DFD6069DFF86012884203D0FFF7D8
S1132F3037FD1F204CE000206061208A002829D042
S1132F4014F10800FFF74FFE8146B9F13C09D9F8A6
S1132F500800C0051AD5D9F804100800D9F80010E3
S1132F608A46C0F800A0CAF80400B6F87001401EF2
S1132F70A6F87001D9F8080030F48070C9F8080088
S1132F80D9F8080050F00300C9F808004846FFF7D4
S1132F902FFCD2E7D6F82801070016F59470874273
S1132FA011D0A7420DD16168080021688846C0F895
S1132FB00080C8F80400B6F83001401EA6F83001BD
S1132FC001E03F68E9E7FFF7EBFC22F0ADF80020F1
S1132FD0BDE8F08710B5040000212000FFF798FF3A
S1132FE010BDF8B5050067480068060068696649C1
S1132FF0884201D01F2031E0FFF7C1FCA8690028F6
S113300026D4288A002823D015F10800FFF7EBFD09
S113301007003C3FB868C00512D5796808003968D4
S11330200C0004606060B6F87001401EA6F87001E0
S1133030B86830F48070B860B86850F00300B860C5
S11330400020B8633800FFF7D3FB22F06DF802E0EC
S1133050A869401CA861FFF7A3FC0020F2BDF8B5E5
S11330600400484800680500288B002801D00D2082
S11330702FE060694449884201D01F2029E0FFF70E
S11330807EFCA069012816DAE869060040F22B40AC
S1133090B06014F10800B0637168080031680F0073
S11330A00760786016F13C0114F10800FFF77BFD1E
S11330B022F048F802E0A069401EA061606932492C
S11330C0884203D0FFF76CFC1F2002E0FFF768FC86
S11330D00020F2BD38B504000D0040F22B40A8607A
S11330E014F10800A8636968080029680A000260EE
S11330F0506015F13C0114F10800FFF754FD28005D
S113310000F0F8FAA86B002801D0372000E0002076
S113311032BD2DE9F04104000D001A480068060094
S1133120308B002801D00D2028E0606916498842C0
S113313001D01F2022E0FFF722FCA06901280DDA4C
S1133140F069070017F144000ECD0EC00C3D0C3899
S113315039002000FFF7BEFF804604E0A069401E4E
S1133160A0610020804660690749884203D0FFF7C8
S113317017FC1F2002E0FFF713FC4046BDE8F08176
S1133180000000005400FF1F6D73776C38B542F2E5
S11331906300FDF7B5FE5FF000510020FDF7CDFBA5
S11331A0FA21002000F0BEFD0500002D01D028000A
S11331B0B1E0614800F0C4FD6048614988420AD228
S11331C05F485E495F4A5118884204D2FDF7C8FB44
S11331D05D49086009E059485A4908185B49411A91
S11331E05A48FDF736FC58490860FEF735FC0223BF
S11331F000225749574800F0D7F80500002D01D0A8
S1133200280088E0C8220021524800F02EF9050069
S1133210002D04D04F4800F0F1F828007BE0002294
S11332200FF2F5014B4800F07FF90500002D04D0A2
S1133230484800F0E3F828006DE0464800F041F902
S11332400500002D04D0434800F0D8F8280062E0BF
S11332500120FEF754FB002801D026205BE0FEF796
S1133260E3FB002801D0262055E00020FEF747FBB1
S1133270002801D026204EE0374800680400374873
S1133280C4F88001C82000F0BAFC324800F02DF9DF
S113329000F0C3FC00210FF28D0000F0B6FC00F03A
S11332A059FD00F04AFE00F063FE0500002D01D038
S11332B0280030E0FEF7D7FD002805D1042000F0F7
S11332C076FE012001F011F82548264901602648C0
S11332D02449016001F02EF801F034F82348026813
S11332E02249234801F046F82249234801F08EF987
S11332F02049224801F004FE2149224802F08AF9BB
S11333002149224802F0ACFD214803F04DFB0500A1
S113331003F08AFC002032BD10B5040000F09DFBD0
S113332010BD00001FB5040000A90A4800F0E4F82D
S1133330029804B010BD0000000000000000FF1F50
S1133340600AFF1F00000200A407FF1F0000FF1F08
S1133350C8860200B802FF1F5400FF1FC0270900DF
S1133360202808E000A00FAA202008E0848502009D
S1133370AC7D0200B8840200B47D0200BC7D020072
S113338094840200C47D0200AC840200CC7D02005F
S113339068850200C046C046024A11001820ABBE30
S11333A0FBE700BF26000200F8B504000D0016007C
S11333B01F00002C01D0002D01D10C201DE0286835
S11333C0002801D1012018E0256000200021C4E973
S11333D004010020A060002060600020E060002064
S11333E0A0610020E06100202062002060623A00B9
S11333F03100200023681B689847F2BD38B50400EB
S1133400002C02D02068002801D10C202CE0206878
S11334104068002801D1012026E0200021680969C4
S113342088470500002D01D028001DE020002168F8
S1133430496888470500002D01D0280014E00020C9
S1133440206000200021C4E9040100206060002005
S1133450A0600020E0600020A0610020E061002066
S1133460206200206062002032BD2DE9F04104009A
S11334700D001600002C04D02068002801D0002E76
S113348001D10C201BE020688068002801D10120B4
S113349015E06560FEF74DFA2900C9B2C0B2FEF727
S11334A04CFA0700B7FBF6F08046B8F1000F01D1E3
S11334B00120804641462000226892689047BDE87A
S11334C0F08110B50400002C02D02068002801D13E
S11334D00C2009E02068C068002801D1012003E025
S11334E020002168C968884710BD0100002901D166
S11334F0002000E0C868704738B504000D00002CB7
S113350004D02068002801D0002D01D10C200AE04D
S113351020684069002801D1012004E0290020002E
S113352022685269904732BD0300002B01D10C2060
S113353006E00020986100201862DA619961002099
S1133540704770472DE9F44F04000D001E000A9FD8
S1133550DDF82C805FF0010B00984019401E000933
S113356000018146B9F164008246C4F8109015F157
S11335700F0000090001A061C4F814A06422002116
S11335805046FFF7FFFA1248CAF84000CAF82C80E8
S1133590706850F00100CAF844005FF08070CAF807
S11335A04800CAF858800020CAF80000CAF804701D
S11335B07FF00200CAF8280094F82800800703D599
S11335C0200000F007F883465846BDE8F28F00005B
S11335D03526000038B504009420FDF7D8F905001D
S11335E0002D05D104212000FFF7A2F900200BE0F3
S11335F022212800FDF76DFB21002800FDF774FB54
S1133600E06828616563012032BD01000320704732
S113361062F30F2262F31F42401810F0030308D034
S1133620C91A1FD3DB0748BF00F8012D28BF20F8B3
S1133630022D130030B414461546103928BF20E972
S11336403C00FAD8490728BF20E90C0048BF40F8DD
S1133650042D890028BF20F8022D48BF00F8012D51
S113366030BC7047C91818BF00F8012DCB0728BF1C
S113367000F8012D7047020000205FF00041704700
S11336803EB504000D00002D08D000A9280003F069
S1133690E7FA220000A9200003F024FB20003EBD2D
S11336A070B50600DFF8580600680400002E02D149
S11336B003F042FB1DE0E0690500761E15F14401AC
S11336C0300003F0F3FBD5E91101801C51F1000136
S11336D0C5E91101FFF753F915F1440214F5A87176
S11336E015F1440003F0FEFA280000F003F8FFF798
S11336F057F970BD2DE9F8430400DFF804060068AB
S1133700804618F5B4708146B8F87001002826D0B8
S1133710D8F868010500B8F87001401C0600761E50
S1133720002E1CD0D4E91123D5E911018B4204D811
S113373001D3824201D201270CE0D5E91123D4E957
S113374011018B4205D801D3824202D25FF0FF37C8
S113375000E00027002F02D5A9462D68DFE7616845
S1133760080021688C46C0F800C0CCF80400220090
S1133770494618F5B470FFF761FAA06850F48070F8
S1133780A06021F0DFFCBDE8F18370B504000D00FA
S11337901600002C03D0002D01D0002E01D10C20E6
S11337A005E032002900200003F0C4FB002070BDB6
S11337B070B584B004000D00160000AA2900200092
S11337C0FFF7E3FF310000A803F0D8FB04B070BD9D
S11337D038B50400002C1AD0DFF82805006805006D
S11337E0FFF7CDF815F5A8700EC80EC40C380C3CC4
S11337F0D5F88801002805D0D5F88C01D5F88811B2
S11338008847A060FFF7CCF8200003F0E5FB31BD4A
S1133810F8B504000D00002C01D0002D01D10020CA
S1133820C4E0A089B0F57A7F0FD36089A1894FF4F1
S11338307A7291FBF2F108186081A0894FF47A71D1
S113384090FBF1F201FB1200A08160893C280DD3AA
S1133850208961893C2291FBF2F10818208160895A
S11338603C2190FBF1F201FB1200608120893C288D
S11338700DD3E08821893C2291FBF2F10818E08005
S113388020893C2190FBF1F201FB12002081E088A9
S113389018280DD3A088E188182291FBF2F10818AA
S11338A0A080E088182190FBF1F201FB1200E08077
S11338B0A088012801D2002078E060880D280DD36B
S11338C0208861880C2291FBF2F10818208060881E
S11338D00C2190FBF1F201FB12006080208840F281
S11338E0B271884202D240F2B2702080208800F087
S11338F060F9070060880D21DFF80C2401FB072123
S1133900405CA18880B2884210D2A08861880D22D0
S1133910DFF8F43302FB0732895C401AA080608828
S1133920401C608060880D28E0D304E02088B0F556
S11339300C6F11D30EE0208861880C2291FBF2F108
S11339400818208060880C2190FBF1F201FB120022
S11339506080CBE7002029E0DFF8B0032188DFF89E
S1133960B02312EB81014058060060883421DFF84F
S1133970A42301FB072111EB800050F8040C8619E5
S1133980A088401EDFF8901301FB0066E0884FF426
S1133990616101FB006620893C2101FB00666089AE
S11339A016FA80F62E60A08968600120F2BD10B579
S11339B084B0040000A800F00CF8210000A803F073
S11339C027FB1FBDDFF83C1309680800D0F87C0111
S11339D0704738B50400002C20D0DFF828030068B5
S11339E00500FEF7CCFF15F5A8700EC80EC40C3800
S11339F00C3CD5F88801002805D0D5F88C01D5F801
S1133A0088118847A060220015F5AE71200003F0EC
S1133A1069F9FEF7C5FF200003F0DEFA31BDF0B40A
S1133A200400002C01D10C2015E000290CD000204A
S1133A30A060DFF8E802D0E900670A000023B218AA
S1133A407B41C4E9002305E0DFF8D0022CC82CC474
S1133A500C380C3C0020F0BC70472DE9F047DFF82F
S1133A60A40200680400D4E95401401C51F100018F
S1133A70C4E95401FEF783FFD4F88801002806D076
S1133A80D4F88C01D4F888118847C4F8580114F587
S1133A90A87003F0A1FAB4F870010600002E4CD00F
S1133AA0D4F8680105003000461E002845D0286877
S1133AB08246D5E91123D4E954018B4204D801D3B9
S1133AC0824201D201270CE0D4E95423D5E9110143
S1133AD08B4205D801D3824202D25FF0FF3700E067
S1133AE00027002F29D4B4F87001401EA4F87001F7
S1133AF06968080029688946C0F80090C9F804007C
S1133B00A86830F48070A860A868400510D5A8683B
S1133B1030F48060A860296C0800E96B8846C0F81E
S1133B200080C8F80400A86B0089401EA96B0881B6
S1133B302800FEF75DFE5546B5E7FEF731FFD4F8E1
S1133B40E002002802D0D4F8E0028047D4F8180339
S1133B50002802D0D4F818038047BDE8F0873EB5AA
S1133B600400DFF8A001006805006068B0F57A7F02
S1133B700FD3206861684FF47A72B1FBF2F1081830
S1133B80206060684FF47A71B0FBF1F201FB12001F
S1133B90606000A9200003F08DFAFEF7F0FE15F531
S1133BA0AE7215F5A87100A803F0C4F9FEF7F8FE8B
S1133BB037BD010089B2642291FBF2F302FB1312B8
S1133BC0002A0ED189B24FF4C87291FBF2F302FBC2
S1133BD01312002A02D1012210000FE0002210006B
S1133BE00CE089B2042291FBF2F303FB1213002BC5
S1133BF002D10122100001E0002210007047414A66
S1133C0012681100C1F87C0170473E4B1B681A0012
S1133C10C2F88801C2F88C1170473A4A1268110040
S1133C20C1F884017047F8B504000D00002C01D0E0
S1133C30002D01D1002060E020683949884203D278
S1133C406068B0F57A7F01D3002056E00020288018
S1133C50206829882E4A12EB81014968884203D3DF
S1133C602888401C2880F3E720682988284A52F8CD
S1133C702110401A0600288800F2B2702880288893
S1133C80FFF797FF07000120688068883421214AE4
S1133C9001FB072151F82000864203D36888401CA9
S1133CA06880F2E7688834211A4A01FB072111EB86
S1133CB0800050F8040C361A1748B6FBF0F0A880C0
S1133CC0A888154901FB1066A888401CA8804FF4F9
S1133CD06160B6FBF0F0E880E8884FF4616101FBB5
S1133CE010663C20B6FBF0F0288128893C2101FBBA
S1133CF010666E816068A8810120F2BD000000009A
S1133D005400FF1F5400FF1FD47D020038E1FFFF61
S1133D10587E0200F07D0200805101002C7B0200DD
S1133D20015786F470B504000D0029002000FEF749
S1133D30EDFE0600002E01D103F0E0F9300070BD65
S1133D400100034A12681000014A11607047000024
S1133D5008ED00E00348006840084000014908609D
S1133D600020704700D000402DE9F04704002500F2
S1133D70DFF8E40150F825008046D8F82400814695
S1133D800020060001208246BAF1000F31D0D1454F
S1133D902FD319EA0A0F28D0C8F824A016EB45102F
S1133DA007000C20DFF8B41100FB0710006803289B
S1133DB01BD00C20DFF8A41100FB071001210160C7
S1133DC00C20DFF8981100FB0710406800280CD085
S1133DD00C20DFF8881100FB071080680C21DFF845
S1133DE07C2101FB0721496888475FEA4A0A761C5F
S1133DF0CAE7BDE8F0872DE9F04704002500DFF8A5
S1133E00580150F825008046D8F82C00814600203F
S1133E10060001208246BAF1000F2DD0D1452BD3E4
S1133E2019EA0A0F24D088F81A60C8F82CA0C8F838
S1133E3024A016EB451007000C20DFF8201100FB2E
S1133E400710032101600C20DFF8101100FB07109C
S1133E50406800280CD00C20DFF8001100FB07108C
S1133E6080680C21DFF8F42001FB072149688847AA
S1133E705FEA4A0A761CCEE7BDE8F087F8B504008D
S1133E80200003F05CF9DFF8D00050F824000700AC
S1133E900020F860DFF8C800386038688003FCD47C
S1133EA04020B87700200500202D0ED228091022CA
S1133EB0B5FBF2F101FB1251DFF8A82052F82020E3
S1133EC000238B54BD766D1CEEE78C20386000A96E
S1133ED0200003F01DF9060000200500B5420FDAAA
S1133EE022002149009850F82500FEF7ADFD01227B
S1133EF00321009850F8250003F03EF96D1CEDE70E
S1133F0000A9200003F010F9060000200500B542C6
S1133F100FDA22001549009850F82500FEF794FDA9
S1133F2001220321009850F8250003F025F96D1CA7
S1133F30EDE7402078760020F2BD38B5002004007B
S1133F40002C07D12000FFF799FF0500002D01D1B7
S1133F50641CF5E7280032BD6001FF1F3408FF1F11
S1133F60200002006401FF1F693D0000F73D0000CE
S1133F7010B5074800680400002114F51E70FEF710
S1133F800CFE012114F51770FEF7B8FF10BD00BF39
S1133F905400FF1F4FF47A7101FB00F1782202FBF9
S1133FA001F3002B02D000BF5B1EFAE7704770B527
S1133FB004000025DFF8E462E00720D5FEF7DFFC0B
S1133FC0306950F001003061DFF8D4020021016053
S1133FD0DFF8D00200210160DFF8CC02002101608B
S1133FE0DFF8C802002101603069400840003061F8
S1133FF05FF0FF30B06001203060FEF7D1FCA00715
S113400015D5FEF7BCFC306950F001003061306911
S113401040084000306101203060DFF88C0200214C
S11340200160DFF8880200210160FEF7B9FC600737
S113403029D53069C00703D5306940084000306194
S113404032000FF251015220FEF7FEFC002802D18B
S1134050FEF754FA0500002D15D17069C00602D58B
S11340603069C0050AD4306950F4807030617D2015
S1134070FFF790FF706950F0100070610122042175
S1134080522003F079F8DFF828021021016028009B
S113409070BD00002DE9F0410400DFF800525FF02C
S11340A001086869060016F0030F1DD0686930F036
S11340B0100068615FF0FF30A86001202860686923
S11340C050F010006861F00701D5082000E00020DE
S11340D0B10701D5042100E00021DFF8D0211268E6
S11340E0084310437149086070072ED5A86807007B
S11340F06B48006887420DD16C48006850F001009D
S11341006A490860684800684008400000F09EF86A
S1134110002080466348006887420DD163480068E8
S113412050F00200614908605F48006830F0020006
S113413000F08CF800208046B8F1010F05D15A48F0
S113414000688008800000F081F85A480068002860
S113415009D05648006854490968084203D0280029
S1134160544909688847BDE8F0810100002089B2FC
S1134170042291FBF2F303FB1213002B16D101224C
S1134180100089B2642291FBF2F302FB1312002A9D
S113419001D10022100089B24FF4C87291FBF2F3EE
S11341A002FB1312002A01D1012210007047F8B556
S11341B0040000252088A0F2B27040F26D1148433B
S11341C0050040F2B27007002088874207D2380009
S11341D080B2FFF7CAFF401905007F1CF4E70120F5
S11341E00600608886420FD2334810EB460030F850
S11341F0020C15FA80F5022E04D12088FFF7B5FFD2
S113420040190500761CECE7A088401E45192B4890
S1134210E1884FF46162514300FB051021893C227F
S113422002FB0100618910FA81F0F2BD1B494A6961
S113423032F010024A6102680A604A6952F01002C0
S11342404A61704715490A680260704710B41349FF
S113425010F00302002A03D15FF0FF338B601AE0F1
S1134260032A10D10B681A000E4B1B689B1A0C4CC6
S11342702468A41AA34202D3094B1B6801E0094B2A
S11342801B688B6007E0C30702D5054B1B6801E080
S1134290044B1B688B6010BC7047000000D00340C7
S11342A02008FF1F2408FF1F2808FF1F2C08FF1FDA
S11342B024D003403008FF1FB08602008051010063
S11342C030B583B004000D002068009000200190F8
S11342D0290000A8FFF7A7FC37BD38B504000D007E
S11342E02000FFF764FF286031BD10B588B00400DA
S11342F0012C0ED100A8FFF7A5FF03A900A8FFF722
S1134300DFFF01A903A8FFF783FA01A8FFF727FC41
S11343100DE001A8FFF74BFB03A901A8FFF783FCFD
S113432000A903A8FFF7D9FF00A8FFF77FFF00202B
S113433008B010BD07480849016006480068002815
S1134340FBD470470548044901600448006800280C
S1134350FBD47047002808E003000085002008E033
S1134360C17851F02C01C1707047C17811F053012C
S1134370C17070477FB504000D00160003960295C6
S1134380074801900FF2FD1000900FF289030FF21D
S1134390A5020FF21101200002F050FF04B070BD1D
S11343A0A57B00002DE9F04104000D0060690700C1
S11343B02A0014F11801380003F05CFB8046B8F1C0
S11343C0000F01D0404622E0A06906003869FEF7DC
S11343D00BFBF0623869FEF704FBB06222000FF2B7
S11343E08D017869FEF730FB70620122F969786902
S11343F002F0C2FE22000FF2D1013869FEF724FB5D
S113440070620122B969386902F0B6FE0020BDE885
S1134410F081000070B504000D002E6A2900200010
S113442003F0A8FBEA6A696A2069FEF70DFB002025
S113443070BD000070B504001425266A042160686C
S1134440C0B2FDF711FBE80603D53000FFF788FF83
S113445002E03000FFF789FF280704D508216068CF
S1134460C0B2FDF701FB002070BD000070B4010074
S11344708A69136A1C79556B6D1C5563250702D52F
S1134480D56C6D1CD564E50702D5556C6D1C55645F
S1134490650702D5556D6D1C5565A50702D5956C4C
S11344A06D1C95640A252C420BD0DD799E7CF607A1
S11344B007D55D7C55F040055D749D7C55F0010584
S11344C09D7470BC704700002DE9F04182B0040077
S11344D02500AE69376A97F80480706B401C7063DE
S11344E05FEA087002D5F06C401CF0645FEAC870A3
S11344F002D5706C401C70645FEA487002D5706D20
S1134500401C70655FEA887002D5B06C401CB064D2
S11345100A2018EA000F0CD0F879B97CC90707D52E
S1134520787C50F040007874B87C50F00100B87486
S113453025E05FEA88600ED5F87900900099C9B249
S1134540280003F088F9002802D1306D401C306542
S1134550B06B401CB0635FEA086010D5280003F01C
S1134560FCF900900098002802D40098F87103E048
S1134570F87810F07F00F870F06B401CF063BDE831
S1134580F381000010B484692200146A23001C79AA
S11345902406FCD5D971D46B641CD463DC7854F044
S11345A08004DC7010BC7047F0B5020000200027C6
S11345B05FF0FF3C65465FF0000C6346032B1FD29F
S11345C05FF0000C6446402C18D2DFF8B0C45CF8ED
S11345D023C0DFF8ACE45EF824E00EFB0CFC01FB26
S11345E00CFCBCEB020C6646002E00D57642AE42B3
S11345F002D2350018002700641CE4E75B1CDDE7E9
S11346008001C0B217F03F073843F0BD3EB5040047
S11346100D0002950FF2491001900FF229500090FD
S11346200FF265430FF2FD020FF20901200003F0BF
S113463085FC3EBD2DE9F04104000D0016002078F4
S113464003F06AFD0700002F02D14AF6021067E06A
S11346505C20FCF75FFB8046B8F1000F01D1042019
S11346605EE040F20B414046FCF733FB2078FDF757
S113467039FCC5F80080404621001422FEF772FB85
S1134680C8F814700020C8F818000020C8F81C00EE
S11346900020C8F82000607888F82400002088F8FA
S11346A02500002088F82600002088F82700002034
S11346B0C8F828000020C8F82C000020C8F83000F2
S11346C00020C8F834000020C8F838000020C8F8DA
S11346D03C000020C8F840000020C8F84400002036
S11346E0C8F848000020C8F84C000020C8F8500062
S11346F00020C8F854000020C8F858000020B87002
S11347000020F870A078400038706168DFF8740306
S1134710FFF74AFF7870B87850F08000B870002036
S1134720BDE8F08170B504000D00002D01D0002C0F
S113473002D14AF6031011E068690600F078800699
S113474002D54AF6011009E00020B070FF20F07095
S1134750A069FCF796F90020A061002070BD00005C
S11347602DE9F04788B004000D0016005FF0000842
S1134770606907002800C01E36D040F2FE31401A9E
S113478000F0EA80401E00F0FA80401E00F0C28073
S1134790401E00F0CB80401E00F0D480401E00F08C
S11347A01C81401E00F02381401E00F00281401E47
S11347B000F00981401E00F09A80401E44D0401E43
S11347C061D0401E00F01D81401E00F02481401E77
S11347D000F03381401E00F09380401E00F095806D
S11347E0401E00F0378144E194F8270010F00300E4
S11347F002280CD1E06B216C8842FBD1F8788DF84B
S11348000000C0B210F0A000202803D1F6E7F87829
S11348108DF80000206CE06394F8270080070BD526
S11348209DF80000800607D4002084F827000020AB
S1134830A062072084F82500002E04D09DF8000013
S113484010F00100306014E14AF601108046B87897
S1134850800617D594F82500022803D1E06B216C5B
S113486088420AD094F82500032802D1A06A0028BF
S113487003D094F82500072804D1012084F82500EA
S113488000208046F5E0B87810F0E700B870F878BA
S113489050F01200F8700020A062002084F8270075
S11348A0002084F82500206B6063B878800603D468
S11348B038798DF8000003E0B87810F0DF00B870A4
S11348C0F8788DF800009DF8000080060ED59DF85C
S11348D00000800706D5F87850F00200F8703879A7
S11348E08DF80000F8788DF80000ECE7C1E0002EA8
S11348F003D14AF60310804601E03068A062B8E0B4
S1134900B87810F07F00B870B3E0B87850F0800049
S1134910B870AEE094F82500002803D04AF60110E0
S1134920804602E0002084F82400A2E094F82500E8
S1134930002803D04AF60110804602E0012084F8E2
S1134940240096E0002E03D14AF60310804602E0CC
S113495094F8240030608CE0002E03D14AF6031052
S113496080460BE0F878800603D54AF601108046AD
S113497004E031684348FFF717FE787079E0002EB1
S113498003D14AF60310804612E0787880093B4947
S113499051F820008246787810F03F00384951F8E9
S11349A020008146374809FB0AF1B0FBF1F0306082
S11349B05FE0002E03D14AF60310804602E030681F
S11349C084F8260055E0002E03D14AF603108046F1
S11349D002E094F8260030604BE0002E03D14AF642
S11349E00310804602E030684000387041E0002E39
S11349F003D14AF60310804602E03878400830605C
S1134A0037E0002E03D14AF60310804602E094F802
S1134A10250030602DE0002E03D14AF603108046B5
S1134A200AE001A814F144011822FEF79BF93000B2
S1134A3001A91822FEF796F91BE00020606400200B
S1134A40A0640020E0640020206500206065002050
S1134A50A0650EE0002E03D14AF60310804607E05D
S1134A60F878800602D50120306001E00020306033
S1134A70FFE7404608B0BDE8F0870000A4850200C7
S1134A80B0850200008793032DE9F84304000D006C
S1134A901600A06907007869804697F8270050F04F
S1134AA0010087F8270097F8250081465FFA89F905
S1134AB0B9F1000F04D05FFA89F9B9F1010F38D1C7
S1134AC0032087F8250097F82400002831D198F8AE
S1134AD0020050F0100088F8020098F8030050F02B
S1134AE0020088F803005FFA89F9B9F1010F06D1D1
S1134AF098F8020050F0040088F8020005E098F8E5
S1134B00020050F0200088F8020097F8270050F0C7
S1134B10020087F8270097F82600400050F00100B3
S1134B2088F80400F86C401CF86498F803008007C7
S1134B30FBD533002A003900404600F05EF8BDE89A
S1134B40F28300002DE9F84304000D001600A0696B
S1134B5007007869804697F8270010F0FE0087F870
S1134B60270097F8250081465FFA89F9B9F1000F0B
S1134B7004D05FFA89F9B9F1010F36D1022087F820
S1134B80250097F8240000282FD198F8020050F04F
S1134B90100088F8020098F8030050F0020088F82A
S1134BA003005FFA89F9B9F1010F06D198F8020000
S1134BB050F0040088F8020005E098F8020050F074
S1134BC0200088F8020097F8270050F0020087F8C8
S1134BD0270097F82600400088F80400F86C401C71
S1134BE0F86498F803008007FBD533002A003900E5
S1134BF0404600F002F8BDE8F28378B404000020D7
S1134C000600B342C0F07981E0780500A078800600
S1134C1013D49E4201D1300070E191F8270080073F
S1134C200BD5A80609D4002081F82700002088624B
S1134C30072081F82500300060E1A807E4D591F849
S1134C40270050F0020081F82700A078800640F188
S1134C509680A078C00652D5E8070BD5E07850F0CE
S1134C600200E070072081F82500886D401C8865EB
S1134C70330040E191F82500022813D191F8270070
S1134C80C0070DD49E4280F03681E07850F00200D7
S1134C90E07010782071521CC86C401CC8642AE172
S1134CA0330028E191F82500032826D191F8270044
S1134CB0C00720D5A07810F0EF00A070886A012802
S1134CC004D1A07850F00800A07003E0A07810F0A0
S1134CD0F700A070E07850F00200E070886A0028C5
S1134CE004D1072081F82500330004E120798DF8F0
S1134CF00000761EFFE03300FDE03300FBE091F896
S1134D002500032839D191F82700C00733D5886AD4
S1134D10002830D09E4280F0EE80E07850F002000F
S1134D20E070886A401E8862886A012804D1A078ED
S1134D3050F00800A07003E0A07810F0F700A07015
S1134D40886A002803D1A07850F01000A070207960
S1134D501070521C886A002809D1A07810F0EF0066
S1134D60A070072081F82500701C03001E00886CC9
S1134D70401C8864BFE03300BDE03300BBE0E806BC
S1134D800AD5E07850F01000E070062081F8250084
S1134D90086D401C0865330068064AD591F8240064
S1134DA0002802D1486D401C486568071AD50520C3
S1134DB081F8250091F82700C00711D49E4280F0A5
S1134DC09A80A07850F01000A070E07850F00200B3
S1134DD0E07010782071521CC86C401CC8648AE0D2
S1134DE0330088E0042081F8250091F82700C007EB
S1134DF01DD5002E1BD1886A002818D0A07810F089
S1134E00EF00A070E07850F00200E070886A01289A
S1134E1004D1A07850F00800A07003E0A07810F04E
S1134E20F700A07020798DF80000761E63E033004F
S1134E3061E0E8065ED4A078C00628D5E8070BD563
S1134E40E07850F00200E070072081F82500886DBA
S1134E50401C886533004EE091F82500022803D0F9
S1134E6091F82500052810D191F82700C0070CD42B
S1134E709E4240D2E07850F00200E0701078207139
S1134E80521CC86C401CC86435E0330033E091F810
S1134E902500032803D091F82500042828D191F88F
S1134EA02700C00724D5886A002821D09E4222D238
S1134EB0E07850F00200E070886A401E8862886AD8
S1134EC0012804D1A07850F00800A07003E0A07875
S1134ED010F0F700A070886A002802D1072081F83A
S1134EE0250020791070521C886C401C886402E0F4
S1134EF0330000E03300761C83E6180072BC704770
S1134F003EB504000D000295074801900FF25120B0
S1134F1000900FF235130FF2D5020FF211012000A9
S1134F2003F01EF93EBD0000614700002DE9F04783
S1134F3004000D00606980462A0014F118014046FF
S1134F40FFF778FB8246BAF1000F01D050464AE0E1
S1134F50A06907007869060098F8000003F0F0F8EB
S1134F608146B9F1000F02D14AF602103BE0C7F8BE
S1134F702090D8F81000FBF73FFEF862F86A00288A
S1134F8001D104202FE0D8F80C00FBF735FEB863FC
S1134F90B86B002806D1F86AFBF773FD0020F862AD
S1134FA0042020E040F20941F86AFBF792FE40F247
S1134FB00A41B86BFBF78DFE4846FDF715FDF86115
S1134FC03A000FF2AD214846FDF73EFDB8610122DB
S1134FD098F808104846C0B202F0CEF8B07850F005
S1134FE04000B0705046BDE8F0870000F8B50400FA
S1134FF00D00002D01D0002C02D14AF6031022E04E
S113500068690600F078800602D54AF601101AE0B5
S11350100020B070FF20F07060690700EA69A96998
S1135020286AFDF711FDA069FBF72BFD0020A061A4
S1135030E86AFBF726FD0020E862A86BFBF721FD78
S11350400020A8630020F2BD2DE9F84304000D0000
S11350501600A069070078698046FDF790FC386A5D
S113506002F0D5F8FDF79CFC00208146B14513D22F
S1135070786B396B88420FD0F86A796B4A1C7A6373
S1135080085C28706D1C786B3969884201D3002054
S1135090786319F10109E9E797F8270050F0010056
S11350A087F8270097F825008DF800009DF8000088
S11350B0002803D09DF80000012837D1032087F889
S11350C0250097F82400002830D198F8020050F009
S11350D0100088F8020098F8030050F0020088F8E5
S11350E003009DF80000012806D198F8020050F052
S11350F0040088F8020005E098F8020050F020004F
S113510088F8020097F8270050F0020087F827007B
S113511097F82600400050F0010088F80400F86C6D
S1135120401CF86498F803008007FBD598F8020047
S113513080060FD497F8270080070BD598F8030052
S1135140800607D4002087F827000020B8620720D3
S113515087F82500386A02F047F84846BDE8F2832C
S11351602DE9F04704000D001600A06907007869D6
S11351708046FDF704FC386A02F049F8FDF710FC9C
S113518000208146B14514D2F86B401C8246F86871
S1135190824501D300208246386C824509D0F86BE1
S11351A0B96B2A7842546D1CC7F83CA019F1010967
S11351B0E8E797F8270010F0FE0087F8270097F833
S11351C025008246BAF1000F02D0BAF1010F34D1A2
S11351D0022087F8250097F8240000282DD198F89C
S11351E0020050F0100088F8020098F8030050F014
S11351F0020088F80300BAF1010F06D198F8020002
S113520050F0040088F8020005E098F8020050F01D
S1135210200088F8020097F8270050F0020087F871
S1135220270097F82600400088F80400F86C401C1A
S1135230F86498F803008007FBD598F8020080060C
S11352400FD497F8270080070BD598F80300800641
S113525007D4002087F827000020B862072087F8C9
S11352602500386A01F0C0FF4846BDE8F087000019
S1135270F8B5040025006E69F0780700686C401CDE
S11352806864B078800640F1C280B078C00665D505
S1135290F8070CD5F07850F00200F070E86B286441
S11352A0072085F82500A86D401CA865ABE195F89A
S11352B02500022821D1E86B296C884219D095F881
S11352C0270010F00300022813D1F07850F00200F8
S11352D0F070A86B296C4A1C2A64085C3071286C35
S11352E0E968884201D300202864E86C401CE86423
S11352F089E1286A01F08BFF85E195F825000328F0
S113530028D195F8270010F0030003281ED1B078A7
S113531010F0EF00B070A86A012804D1B07850F002
S11353200800B07003E0B07810F0F700B070F078C7
S113533050F00200F070A86A002803D1072085F815
S1135340250060E130798DF800005CE1286A01F005
S11353505EFF58E1286A01F05AFF54E195F82500F0
S1135360032850D195F8270010F00300032846D1F4
S1135370A86A002843D0286B401C8DF800009DF8D3
S113538000002969884202D300208DF800009DF8AE
S11353900000696B884203D1286A01F038FF32E1CA
S11353A0F07850F00200F070A86A401EA862A86A63
S11353B0012804D1B07850F00800B07003E0B07850
S11353C010F0F700B070A86A002803D1B07850F04C
S11353D01000B070286BE96A327942549DF80000DD
S11353E02863A86A002806D1B07810F0EF00B070E6
S11353F0072085F82500A86C401CA86403E1286AEE
S113540001F005FFFFE0286A01F001FFFBE0F80668
S113541009D5F07850F01000F070062085F82500CA
S1135420286D401C286578065DD595F82400002871
S113543002D1686D401C6865780728D5052085F879
S1135440250095F8270010F0030002281BD1E86B13
S1135450296C884217D0B07850F01000B070F07802
S113546050F00200F070A86B296C4A1C2A64085C96
S11354703071286CE968884201D300202864E86C04
S1135480401CE864BFE0286A01F0C1FEBBE00420D0
S113549085F8250095F8270010F0030003281ED195
S11354A0686B296B88421AD1A86A002817D0B07893
S11354B010F0EF00B070F07850F00200F070A86ABD
S11354C0012804D1B07850F00800B07003E0B0783F
S11354D010F0F700B07030798DF8000093E0286A7E
S11354E001F095FE8FE0F80600F18A80B078C006DE
S11354F038D5F8070CD5F07850F00200F070E86B5E
S11355002864072085F82500A86D401CA8657AE06A
S113551095F82500022803D095F8250005281DD10B
S1135520E86B296C884219D095F8270010F0030025
S1135530022813D1F07850F00200F070A86B296CA7
S11355404A1C2A64085C3071286CE968884201D3DB
S113555000202864E86C401CE86454E0286A01F0E8
S113556056FE50E095F82500032803D095F8250051
S1135570042841D195F8270010F0030003283BD1FB
S1135580A86A002838D0286B401C8DF800009DF8CC
S113559000002969884202D300208DF800009DF89C
S11355A00000696B884203D1286A01F030FE2AE0CA
S11355B0F07850F00200F070A86A401EA862A86A51
S11355C0012804D1B07850F00800B07003E0B0783E
S11355D010F0F700B070A86A002802D1072085F8FF
S11355E02500286BE96A327942549DF8000028634B
S11355F0A86C401CA86406E0286A01F008FE02E0DA
S1135600286A01F004FE95F8270050F0020085F89E
S11356102700F1BDFEB504000D002420FBF77DF941
S11356200600002802D14AF601602BE02422002162
S11356303000FDF7A7FA2A003100200003F0ABF890
S11356400700002818D12A003100200003F047FD8C
S11356500700002810D102960FF2D14001900FF2FA
S1135660C54000900FF24D430FF265320FF219015D
S1135670200004F00BFA0700002F02D03000FBF7E3
S113568000FA3800FEBD00002DE9F54F83B00D008F
S113569003980068446A0398006880680190019840
S11356A0411C01910078002801D06D1CF7E7019599
S11356B00198007800284ED1049F002F02D14AF6A9
S11356C0036081E12068002824D11420FBF75FF9EE
S11356D020602068002802D14AF6016074E10820A5
S11356E0FBF755F960606068002805D16068FBF736
S11356F0C8F94AF6016067E12068396801606068AA
S1135700002141602168039803F049F8060000284D
S113571003D10DE04AF6046056E12068FBF7B1F9C5
S11357206068FBF7AEF9002020600020606010E0A4
S11357306168039803F0D6FC0600002809D02068AD
S1135740FBF79FF96068FBF79CF9002020600020BC
S11357506060300038E1049F5FF0000B14F1080032
S1135760804614F110008146002F02D14AF60360EE
S11357702AE12068002802D14AF6056024E178680D
S1135780002802D14AF606601EE100208346BBF1E0
S1135790020F0DD2290014EB8B00806904F094F9F8
S11357A0002802D14AF604600EE11BF1010BEEE77A
S11357B000208346BBF1020F07D214EB8B008069F3
S11357C0002802D01BF1010BF4E7BBF1020F02D158
S11357D04AF60760F8E01C20FBF7D9F8009000981F
S11357E0002803D14AF601600600ECE058F82B00CB
S11357F000283CD12020FBF7CAF848F82B0058F8C1
S11358002B00002803D14AF601600600D8E02C20C2
S1135810FBF7BDF849F82B0059F82B00002803D1F9
S11358204AF601600600C4E058F82B0000990860AD
S113583059F82B00009948600398009941607869F1
S1135840401C8000FBF7A3F858F82B10C860786957
S113585058F82B10C96811EB8000001D58F82B1064
S1135860086158F82B00C068002807D102E05FF0F7
S1135870FF30A9E04AF60160060093E058F82B00D7
S113588058F82B10C968416158F82B0058F82B10B0
S1135890C968816158F82B00C0F800B058F82B0093
S11358A07988818058F82B003988C18059F82B00F9
S11358B0B969C16159F82B00B968816059F82B00A6
S11358C0F968C16059F82B00C0F800B059F82B00F2
S11358D07988818059F82B007968491E816159F8CB
S11358E02B0059F82B108969416159F82B00F9698B
S11358F00162386A002804D159F82B000121416261
S113590003E059F82B00396A416258F82B100398C8
S113591003F0BAF8060000283FD159F82B10039879
S113592003F077FD0600002832D1280004F0EEF8D9
S1135930401CFBF72CF814EB8B018861002805D17F
S113594059F82B10039803F017FE21E0002082463B
S11359501AF80500002809D014EB8B0080691AF8A6
S113596005100AF800101AF1010AF1E714EB8B0094
S1135970806900210AF80010B878800706D4002254
S113598041F20111039800F0D1F81DE000201BE062
S113599058F82B10039803F00EF958F82B00C06840
S11359A0FBF76FF859F82B00FBF76BF8002049F868
S11359B02B0058F82B00FBF764F8002048F82B0064
S11359C00098FBF75EF8300005B0BDE8F08F0000EA
S11359D02DE9F04704002068456A666815F1080758
S11359E015F11008002E2BD100208146B9F1020FC9
S11359F009DA57F82900002802D04AF6086056E070
S1135A0019F10109F2E76968200003F0FFFB8246FF
S1135A10002801D050464AE02968200003F027F806
S1135A208246002801D0504641E06868FBF729F817
S1135A30002068602868FBF724F80020286035E01F
S1135A4030680068814600227168200003F03EFF40
S1135A507168200003F090FD8246002801D0504672
S1135A6025E03168200003F0A6F88246002801D022
S1135A7050461CE015EB89008069FBF702F815EB32
S1135A808900002181613068C068FAF7FAFF306844
S1135A90FAF7F7FF7068FAF7F4FF3000FAF7F1FF4E
S1135AA0002047F82900002048F829000020BDE81C
S1135AB0F0870000F0B403000C005D682E68706984
S1135AC0002801D100202BE0B069D6F814C0B0EB57
S1135AD00C0080100700002F06D53069D6F80CC0E2
S1135AE0B0EB0C0017EBA0079008B84201D2900865
S1135AF00700002F13D0706900682060241D7069AE
S1135B005FF0000CC0F800C07069001D7061D6F829
S1135B1010C0604501D3F06870617F1EE9E7601A28
S1135B20F0BC704703000020704700002DE9F047E7
S1135B3004000D0016006768B0462800093842D0FA
S1135B4041F2F801401A0ED0401E12D0401E16D069
S1135B50401E1AD0401E1ED0401E22D0401E26D009
S1135B60401E2AD03AE000227968200003F07AFD32
S1135B7050E032000021200003F074FD4AE00022CE
S1135B807968200003F0A2FE44E0320000212000E6
S1135B9003F09CFE3EE000227968200003F0D7FD6C
S1135BA038E032000021200003F0D1FD32E0002271
S1135BB07968200003F02BFE2CE032000021200045
S1135BC003F025FE26E01520C8F800000020C8F8E0
S1135BD004000820C8F8080000201BE03200290057
S1135BE0200002F0AFFB8146B9F1000F03D040F66C
S1135BF0092081450DD132002900200003F06CF901
S1135C00824640F60920824501D1484602E05046CA
S1135C1000E04846BDE8F0872DE9F24F0400150086
S1135C205FF080095FF00F0A5FF0FF3080460220CA
S1135C300600B6F5807F15D801200700112F0FD27A
S1135C4007FB06F068430099401A8346BBF1000F36
S1135C5004D4C34502D2D846B146BA467F1CEDE708
S1135C607600E6E7E06A30F00800E062E06A6FF38D
S1135C70131007005FEAC91010F47F403843BAF1EB
S1135C800101090111F0F001084350F46020E062C1
S1135C90606A000703D40520FDF702FDF8E7E06A17
S1135CA050F00800E062206B50F480102063BDE8DF
S1135CB0F18F406A40F20731084201D0012000E030
S1135CC00020C0B270470200136B0B40180000287C
S1135CD0FAD0704770B504000D001600002028604B
S1135CE000213068C0B2FCF7C8F810F1010F02D1EE
S1135CF040F60B203DE0DFF85009E062E06AC001A5
S1135D00FCD40020C4F8C0005FF481306060282017
S1135D10A062DFF838096064DFF83429B168200034
S1135D20FFF77AFF606A10F0030FFBD14FF6FF71A3
S1135D303068C0B2FCF7A1F810F1010F02D140F6AF
S1135D400B2016E04FF6FF702063DFF8080960634C
S1135D50E06A50F00060E062E06A0001FCD4606A2E
S1135D60C00301D501202860206B50F0800020631F
S1135D70002070BDF8B504000D0028680700C7F3C3
S1135D808150022801D157F40017A868002820D0B8
S1135D90E86800281DD057F40017A868012801D02E
S1135DA057F02007A86810F1010F08D1E868C00473
S1135DB0C00C40F07F4050F47F0006000BE0E86820
S1135DC0C004C00CA96850EA0140060057F002075D
S1135DD001E000200600206B50F080002063606A20
S1135DE0C007FCD46868A060666000202060E7609B
S1135DF0DFF864182000FFF766FF012807D0206B46
S1135E0040F4702050F001002063012027E0206B53
S1135E10000605D5206B50F00110206301201EE020
S1135E20206BC00306D5206B50F0011020635FF097
S1135E30FF3014E017F4403F0CD02069286117F4B8
S1135E404030B0F5803F05D160696861A069A86100
S1135E50E069E861206B50F0010020630020F2BD8E
S1135E60F0B585B004000D00002C01D0002D01D147
S1135E700C2030E0FCF783FD0820FAF74BFF060006
S1135E80002E03D1FCF78CFD042024E040F21141E4
S1135E903000FAF71EFF03960FF2410002900FF252
S1135EA09D1001900FF6651000900FF2C9730FF268
S1135EB00D120FF26101200003F044FE0700002FD1
S1135EC003D135600020706002E03000FAF7D9FD9C
S1135ED0FCF766FD380005B0F0BD000038B50400DD
S1135EE0002C02D140F6012012E0606A0500002D6A
S1135EF002D140F60B200BE06868002802D040F67F
S1135F000A2005E02800FAF7BCFD002060620020AA
S1135F1032BD00002DE9F84F04000D001600002CDE
S1135F2001D10C2047E020680700002F02D140F681
S1135F30012040E0786A8146B9F1000F02D140F6B1
S1135F400B2038E0D9F800008246BAF1000F02D1E4
S1135F5040F60B202FE0DAF80000C0B203F072FE26
S1135F608346BBF1000F02D140F60B2023E0FCF77F
S1135F7006FDD9F80400002803D0FCF711FD2C20FD
S1135F8019E00120C9F80400FCF70AFD0420FAF71F
S1135F90C1FE8046B8F1000F01D104200BE040F2AD
S1135FA012414046FAF795FEC4F804805246414631
S1135FB05846FFF78FFEBDE8F28F00002DE9F0414F
S1135FC00400002C01D10C2036E020680500002DCF
S1135FD002D140F601202FE0686A0600002E02D1AB
S1135FE040F60B2028E030680700002F02D140F66D
S1135FF00B2021E03868C0B203F024FE8046B8F1DB
S1136000000F02D140F60B2016E0FCF7B8FC7068D4
S1136010401E706000280CD1DFF82C06C8F82C0054
S1136020D8F82C00C001FBD46068FAF72AFD0020E0
S11360306060FCF7B5FC0020BDE8F0812DE9F64F67
S11360408FB004005FF00009DDF840A0002C01D1FE
S11360500C20F6E220680E900E98002802D140F63B
S11360600120EEE260680500002D02D140F6012017
